{
  "contractName": "NativeSuperTokenProxy",
  "abi": [
    {
      "inputs": [
        {
          "internalType": "string",
          "name": "name",
          "type": "string"
        },
        {
          "internalType": "string",
          "name": "symbol",
          "type": "string"
        },
        {
          "internalType": "uint256",
          "name": "totalSupply",
          "type": "uint256"
        },
        {
          "internalType": "address",
          "name": "recipient",
          "type": "address"
        }
      ],
      "name": "initialize",
      "outputs": [],
      "stateMutability": "nonpayable",
      "type": "function"
    }
  ],
  "bytecode": "0x608060405234801561001057600080fd5b5061039a806100206000396000f3fe608060405234801561001057600080fd5b506004361061002b5760003560e01c8063bd3a13f614610030575b600080fd5b6101266004803603608081101561004657600080fd5b810190808035906020019064010000000081111561006357600080fd5b82018360208201111561007557600080fd5b8035906020019184600183028401116401000000008311171561009757600080fd5b9091929391929390803590602001906401000000008111156100b857600080fd5b8201836020820111156100ca57600080fd5b803590602001918460018302840111640100000000831117156100ec57600080fd5b909192939192939080359060200190929190803573ffffffffffffffffffffffffffffffffffffffff169060200190929190505050610128565b005b3073ffffffffffffffffffffffffffffffffffffffff166342fe098060006012898989896040518763ffffffff1660e01b8152600401808773ffffffffffffffffffffffffffffffffffffffff16815260200186815260200180602001806020018381038352878782818152602001925080828437600081840152601f19601f8201169050808301925050508381038252858582818152602001925080828437600081840152601f19601f82011690508083019250505098505050505050505050600060405180830381600087803b15801561020357600080fd5b505af1158015610217573d6000803e3d6000fd5b505050503073ffffffffffffffffffffffffffffffffffffffff1663c68d42838284600067ffffffffffffffff8111801561025157600080fd5b506040519080825280601f01601f1916602001820160405280156102845781602001600182028036833780820191505090505b506040518463ffffffff1660e01b8152600401808473ffffffffffffffffffffffffffffffffffffffff16815260200183815260200180602001828103825283818151815260200191508051906020019080838360005b838110156102f65780820151818401526020810190506102db565b50505050905090810190601f1680156103235780820380516001836020036101000a031916815260200191505b50945050505050600060405180830381600087803b15801561034457600080fd5b505af1158015610358573d6000803e3d6000fd5b5050505050505050505056fea2646970667358221220aeb4a5085e437c01f28d0bbe44b80e5061b8ceedeb3df3cf6741486b95cf6f2c64736f6c63430007000033",
  "immutableReferences": {},
  "source": "// SPDX-License-Identifier: AGPLv3\npragma solidity >=0.7.0;\nimport {ISuperToken} from \"@superfluid-finance/ethereum-contracts/contracts/interfaces/superfluid/ISuperfluid.sol\";\n\nimport  \"@superfluid-finance/ethereum-contracts/contracts/interfaces/superfluid/CustomSuperTokenBase.sol\";\nimport { IERC20 } from \"@openzeppelin/contracts/token/ERC20/IERC20.sol\";\n\n/**\n * @dev Native SuperToken custom token functions\n *\n * @author Superfluid\n */\ninterface INativeSuperTokenCustom {\n    function initialize(string calldata name, string calldata symbol, uint256 initialSupply, address recipient) external;\n}\n\n/**\n * @dev Native SuperToken full interface\n *\n * @author Superfluid\n */\ninterface INativeSuperToken is INativeSuperTokenCustom, ISuperToken {\n    function initialize(string calldata name, string calldata symbol, uint256 initialSupply, address recipient) external override;\n}\n\n/**\n * @dev Native SuperToken custom super token implementation\n *\n * NOTE:\n * - This is a simple implementation where the supply is pre-minted.\n *\n * @author Superfluid\n */\ncontract NativeSuperTokenProxy is INativeSuperTokenCustom, CustomSuperTokenBase {\n    function initialize(string calldata name, string calldata symbol, uint256 totalSupply, address recipient) \n        external override\n    {\n        ISuperToken(address(this)).initialize(\n            IERC20(0x0), // no underlying/wrapped token\n            18, // shouldn't matter if there's no wrapped token\n            name,\n            symbol\n        );\n        ISuperToken(address(this)).selfMint(recipient, totalSupply, new bytes(0));\n    }\n}\n",
  "sourcePath": "/Users/siphamandlamjoli/Documents/GitHub/fluid-pebble/contracts/contracts/NativeSuperToken.sol",
  "compiler": {
    "name": "solc",
    "version": "0.7.0+commit.9e61f92b.Emscripten.clang"
  },
  "schemaVersion": "3.4.4",
  "updatedAt": "2022-02-20T23:52:35.716Z",
  "devdoc": {
    "author": "Superfluid",
    "details": "Native SuperToken custom super token implementation NOTE: - This is a simple implementation where the supply is pre-minted.",
    "kind": "dev",
    "methods": {},
    "version": 1
  },
  "userdoc": {
    "kind": "user",
    "methods": {},
    "version": 1
  }
}