{
  "contractName": "NativeSuperTokenProxy",
  "abi": [
    {
      "inputs": [
        {
          "internalType": "string",
          "name": "name",
          "type": "string"
        },
        {
          "internalType": "string",
          "name": "symbol",
          "type": "string"
        },
        {
          "internalType": "uint256",
          "name": "totalSupply",
          "type": "uint256"
        },
        {
          "internalType": "address",
          "name": "recipient",
          "type": "address"
        }
      ],
      "name": "initialize",
      "outputs": [],
      "stateMutability": "nonpayable",
      "type": "function"
    }
  ],
  "bytecode": "0x608060405234801561001057600080fd5b5061035a806100206000396000f3fe608060405234801561001057600080fd5b506004361061002b5760003560e01c8063bd3a13f614610030575b600080fd5b61010e6004803603608081101561004657600080fd5b81019060208101813564010000000081111561006157600080fd5b82018360208201111561007357600080fd5b8035906020019184600183028401116401000000008311171561009557600080fd5b9193909290916020810190356401000000008111156100b357600080fd5b8201836020820111156100c557600080fd5b803590602001918460018302840111640100000000831117156100e757600080fd5b91935091508035906020013573ffffffffffffffffffffffffffffffffffffffff16610110565b005b3073ffffffffffffffffffffffffffffffffffffffff166342fe098060006012898989896040518763ffffffff1660e01b8152600401808773ffffffffffffffffffffffffffffffffffffffff16815260200186815260200180602001806020018381038352878782818152602001925080828437600083820152601f017fffffffffffffffffffffffffffffffffffffffffffffffffffffffffffffffe01690910184810383528581526020019050858580828437600081840152601f19601f82011690508083019250505098505050505050505050600060405180830381600087803b15801561020157600080fd5b505af1158015610215573d6000803e3d6000fd5b505060408051600080825260208201928390527fc68d428300000000000000000000000000000000000000000000000000000000835273ffffffffffffffffffffffffffffffffffffffff8616602483019081526044830188905260606064840190815283516084850181905230975063c68d4283965088958a959460a4860192908190849084905b838110156102b657818101518382015260200161029e565b50505050905090810190601f1680156102e35780820380516001836020036101000a031916815260200191505b50945050505050600060405180830381600087803b15801561030457600080fd5b505af1158015610318573d6000803e3d6000fd5b5050505050505050505056fea264697066735822122094c689c793c37aedd036bde8a6fdee0e91870a806d831b8f87437479bfe0d8b264736f6c63430007000033",
  "immutableReferences": {},
  "source": "// SPDX-License-Identifier: AGPLv3\npragma solidity >=0.7.0;\nimport {ISuperToken} from \"@superfluid-finance/ethereum-contracts/contracts/interfaces/superfluid/ISuperfluid.sol\";\n\nimport  \"@superfluid-finance/ethereum-contracts/contracts/interfaces/superfluid/CustomSuperTokenBase.sol\";\nimport { IERC20 } from \"@openzeppelin/contracts/token/ERC20/IERC20.sol\";\n\n/**\n * @dev Native SuperToken custom token functions\n *\n * @author Superfluid\n */\ninterface INativeSuperTokenCustom {\n    function initialize(string calldata name, string calldata symbol, uint256 initialSupply, address recipient) external;\n}\n\n/**\n * @dev Native SuperToken full interface\n *\n * @author Superfluid\n */\ninterface INativeSuperToken is INativeSuperTokenCustom, ISuperToken {\n    function initialize(string calldata name, string calldata symbol, uint256 initialSupply, address recipient) external override;\n}\n\n/**\n * @dev Native SuperToken custom super token implementation\n *\n * NOTE:\n * - This is a simple implementation where the supply is pre-minted.\n *\n * @author Superfluid\n */\ncontract NativeSuperTokenProxy is INativeSuperTokenCustom, CustomSuperTokenBase {\n    function initialize(string calldata name, string calldata symbol, uint256 totalSupply, address recipient) \n        external override\n    {\n        ISuperToken(address(this)).initialize(\n            IERC20(0x0), // no underlying/wrapped token\n            18, // shouldn't matter if there's no wrapped token\n            name,\n            symbol\n        );\n        ISuperToken(address(this)).selfMint(recipient, totalSupply, new bytes(0));\n    }\n}\n",
  "sourcePath": "/Users/siphamandlamjoli/Documents/GitHub/fluid-pebble/contracts/contracts/NativeSuperToken.sol",
  "compiler": {
    "name": "solc",
    "version": "0.7.0+commit.9e61f92b.Emscripten.clang"
  },
  "schemaVersion": "3.4.4",
  "updatedAt": "2022-03-22T07:33:58.740Z",
  "devdoc": {
    "author": "Superfluid",
    "details": "Native SuperToken custom super token implementation NOTE: - This is a simple implementation where the supply is pre-minted.",
    "kind": "dev",
    "methods": {},
    "version": 1
  },
  "userdoc": {
    "kind": "user",
    "methods": {},
    "version": 1
  }
}